:020000040800F2
:1000000000200020C10000088F0100081101000835
:1000100000000000000000000000000000000000E0
:1000200000000000000000000000000027010008A0
:100030000000000000000000350100088F010008EA
:100040009701000897010008970100089701000830
:100050009701000897010008970100089701000820
:100060009701000897010008970100089701000810
:100070009701000897010008970100089701000800
:1000800097010008970100089701000897010008F0
:1000900097010008970100089701000897010008E0
:1000A00097010008970100089701000897010008D0
:1000B00097010008970100089701000897010008C0
:1000C00072B60A490A4808600A490B4808600B489A
:1000D0000B4908600B490C4A881A0C4A026004302C
:1000E0008842FBD300F0D4F962B6FEE71CED00E0D5
:1000F000000000FF20ED00E00000FF00FFFFFFFF19
:1001000080E200E00020002000020000CDCDCDCD37
:10011000704600210339884202D1EFF3098101E0E2
:10012000EFF3088168E0EFF309800FC800F09EF854
:100130002248004772B6224A224810602249CB6802
:10014000002B0BD0EFF309801038F0C044464D4629
:1001500056465F462038F0C01038D8600A69002A39
:100160000ED0D068F0C8A046A946B246BB46F0C83B
:1001700080F30988CA600020086162B60F48004712
:1001800062B630BF72B60E4A0E481060E6E7EFF373
:1001900005801038ECE1EFF30580103808E20849DB
:1001A0000A4808607047C268D208D200403A084B3B
:1001B00053639163074BD363C2607047FDFFFFFF3A
:1001C00004ED00E0000000080C000020000000101A
:1001D000E50C00080000000112DF704708B5C31CE1
:1001E00005D100F077FD0022024B1A6001E000F01B
:1001F00037F908BD28ED00E038B5051C12480C1C85
:1002000000F072F9114B1B689B0702D51048A169D9
:100210000AE0A1690F488B1E1A880F4B9A4203D13E
:10022000012361690D48994300F05EF9EB1C06D18A
:10023000A369023B1A88084B9A4200D162B6281C77
:10024000FFF7CCFF38BDC046687E00082CED00E00B
:10025000757E0008C87E000812DF0000997E000845
:100260000C2008B5404200F0E5FB08BD38B50C1C79
:10027000111C1A1C302800D9E4E007F03DFB191DC1
:100280002125292D31353D404347514E4B55595D70
:100290006165696D7175797D8185898D9195999D6E
:1002A000A1A5A9ADB1B5B9BDC1C5C9CDD1DDE70025
:1002B000201C00F00DFBC9E0201C00F0B5FBC5E0E0
:1002C000201C00F0C1FBC1E0201C00F0D7FBBDE00A
:1002D000201C00F031FCB9E0201C00F005FCB5E06A
:1002E000201C00F043FCB1E000F090FB0022211C38
:1002F000131C00F089FCA9E000F01CFDA6E000F052
:10030000A3FDA3E0201C00F063F99FE0201C00F097
:100310008DF99BE000F032FF98E000F00DFF95E0D2
:10032000201C00F003FF91E0201C00F043FF8DE053
:10033000201C01F001F889E0201C01F045F885E05F
:10034000201C01F073F881E0201C01F019F87DE019
:10035000201C01F0C6F979E0201C01F0CBF975E012
:10036000201C01F0D6F971E0201C01F0A1FA6DE02B
:10037000201C01F0C7FA69E0201C01F0F5FA65E0E5
:10038000201C01F023FB61E0201C01F03BFB5DE041
:10039000201C01F071FB59E0201C01F0A7FB55E087
:1003A000201C01F0C9FB51E0201C01F05FFC4DE076
:1003B000201C01F0DFFC49E0201C01F005FD45E0B8
:1003C000201C01F04DFD41E0201C01F06FFD3DE0DF
:1003D000201C01F0C5FD39E0201C01F025FE35E0B0
:1003E000201C01F05FFE31E0201C01F081FE2DE0B9
:1003F000201C01F0A3FE29E0201C01F0CFFE25E027
:10040000201C01F0DBFE21E0201C01F0DBFD1DE0E3
:10041000201C01F009FF19E0201C01F027FF15E066
:100420000B4B0C4A586890420CD199605C600A48AA
:100430000A4900F059F809E0054B201C5D689A68EC
:10044000A84703E00A20404200F0F4FA38BDC04655
:100450000C0000206102000813810008748000086D
:1004600008B5084800F040F8802080218005890008
:1004700000F04EF8BFF34F8F034A044B1A60BFF3EE
:100480004F8F08BD808000080400FA050CED00E0E5
:1004900080230E4A9B0510B55A600D4C0D4A002171
:1004A0009A60201CE02207F065FC0B4B636000F0B3
:1004B0006BF80A490A4802F0B4F800F0D7FF01F0DF
:1004C000A5FE084800F022FC10BDC0466D020008E1
:1004D0000C0000207C83000861020008EC00002072
:1004E000CC000020E88400080FB413B5802404A9D0
:1004F00001C9A4050191A468044B64685A68246882
:100500009B68A04713BC08BC04B018470C0000202F
:10051000F7B5061C43180F1C1148311C1A1C019317
:10052000341CFFF7E1FF019AA51B0F23944210D062
:100530001D4003D10B48211CFFF7D6FF21780A4844
:10054000FFF7D2FF0F2D02D10848FFF7CDFF01348E
:10055000E9E71F4202D00548FFF7C6FFF7BDC046D6
:100560008F800008AB800008B4800008B2870008C4
:1005700008B5011C0348FFF7B7FF0C20404200F00C
:1005800059FA08BDBA800008054B064A04C3064A5A
:100590009342FAD10122054B5242DA617047C046BC
:1005A0002C000020E0800008AC0000200C0000209F
:1005B00038B5031C054C08339B001B59E5691A68C4
:1005C000E06159689047E56138BDC0460C000020E5
:1005D000F7B50F1C01921F2801DD0D2014E0104B10
:1005E0008000C418266A0F4B06209E420CD180233F
:1005F0009B059B680C481B680C21DB689847051E0F
:10060000206205D11E202662404200F013FA05E068
:10061000019B0760436000F0F9F9A860F7BDC04690
:100620000C000020E0800008CC00002038B50C4B06
:100630008000C418236A9D6800F0E8F985420AD159
:1006400080239B059B6807481B68216A5B69984764
:10065000054B236203E00E20404200F0EBF938BD69
:100660000C000020CC000020E08000080368002B74
:1006700003D101600960496008E04B6003681B68B2
:100680000B6003681B685960036819607047036852
:100690005A689A4201D1002307E01B68136003687F
:1006A0005A681B685A6003685B680360704738B516
:1006B0000568041C8D4202D1FFF7E9FF03E00160E9
:1006C000FFF7E5FF256038BD08B580239B059B68D3
:1006D000011C1B6801485B69984708BDCC000020DD
:1006E00008B5054B1861002802D082680C3B1A60DF
:1006F000FFF755FD08BDC0460C000020031C007A22
:10070000002809D05A680A605A68196852685A6005
:10071000521A511E8A411A72704708B580239B05F0
:100720009B68DB681B68984708BD0000084B1A6887
:10073000002A02D10060406008E042601A68126836
:1007400002601A68126850601A681060186070477A
:10075000200000207FB5041C443000F069FC2348D1
:10076000211CFFF7A4FF224B5D69002D06D1201C40
:10077000FFF7DCFF201CFFF7B3FF35E0A369AA6990
:10078000934209D21B48FFF782FF201CFFF7CEFFE0
:10079000201CFFF7A5FF2C1C164B01AD1A681E1C70
:1007A00001921A686A601A68511E8A412A72281CCE
:1007B0006946FFF7A3FF002812D0009BA269996940
:1007C0008A42F4D23268934203D1201CFFF7AEFF75
:1007D0000AE01A68636022601A6854601C6003E0D3
:1007E0000448211CFFF742FF7FBDC04624000020C3
:1007F0000C0000202000002037B5144D041E6B694A
:1008000013489C4205D1FFF742FF6869FFF768FF74
:1008100002E0211CFFF74BFF8025211C0D48FFF74C
:1008200025FF684600F004FC201CAD05AB68694656
:100830009B686A4644301B699847221CAB683C326F
:100840009B686846DB68111C984737BD0C00002088
:100850002000002024000020436910B59B0715D517
:10086000041C1C3000F04AFD6269F023111C9943FE
:10087000032361611340022B04D0032B06D1201CFB
:10088000FFF768FF022362699A43626110BD10B5E9
:1008900072B64269930718D5F023041C1340402B0D
:1008A00006D0502B06D1806B211C00F0D9FF01E04F
:1008B00000F0F8FDF02362691A4203D00922A36810
:1008C00052421A60201CFFF7C7FF62B610BD00003D
:1008D000F8B5802614270C1C0169051CB605B36801
:1008E00079431B686831DB68454898472A6920606E
:1008F0007A430021683207F03DFA2768002F7AD04A
:10090000B3683F481B686968DB689847B86020682F
:100910008768002F69D00026CD216A68381C07F04F
:1009200029FA2368AA6869689A619A685E61521810
:10093000DA60206833491C30226800F0F7FC236835
:100940006A68DE641A612068296900F0BFFE2068C9
:1009500001F080FA0122236852429B689A615A6131
:10096000EA68120E1A71236898680379DB0705D5C7
:10097000311CFFF7D2FE2B68036016E0286807F0F1
:100980003FFA061E802E00D9802623680021986831
:10099000FFF7C3FE2968321C07F062F923680021C3
:1009A0009868FFF7BAFE00238355236801219E68EB
:1009B000301CFFF7B2FE011C301C083001F031FE84
:1009C00020686969FFF7EFFB0F482168FFF74EFECB
:1009D0000123EA681A4212D0206842691343436136
:1009E00072B6FFF7B7FE62B609E0FFF76DFE27604B
:1009F00033681F2201E01E22336852421A60F8BD9C
:100A0000CC0000208F08000824000020054AD3698C
:100A1000002B04DB08339B009B58986800E0D068EB
:100A20007047C0460C00002010B5041CFFF7EEFF15
:100A3000206010BD10B5041CFFF7E8FF002802D0AD
:100A4000211C00F02DF910BD08B5094BC218094B47
:100A50009A4204D8021C084B68329A4204D90820F2
:100A60004042FFF7E7FF01E043690B6008BDC04665
:100A7000F4FFFFDFF0FFFFDFFF1F0020174B10B573
:100A8000C218174B041C9A4204D8021C154B68323A
:100A90009A4204D908204042FFF7CCFF1DE072B60D
:100AA000032342691340C9070AD5002B02D0022B49
:100AB00002D011E0FFF74EFE0123626913430AE002
:100AC000012B02D0032B02D006E0FFF795FE012395
:100AD00062699A43131C636162B610BDF4FFFFDFC5
:100AE000F0FFFFDFFF1F0020104B10B5C218104BA6
:100AF000041C9A4204D8021C0E4B68329A4204D954
:100B000008204042FFF796FF0FE072B683698B42E0
:100B10000AD00323426981611340012B04D1FFF7FE
:100B20006BFE201CFFF716FE62B610BDF4FFFFDF60
:100B3000F0FFFFDFFF1F002008B5094BC218094B6B
:100B40009A4204D8021C084B68329A4204D9082001
:100B50004042FFF76FFF01E083690B6008BDC046AC
:100B6000F4FFFFDFF0FFFFDFFF1F002010B5431C85
:100B70003ED0204B041CC2181F4B9A4204D8021CC2
:100B80001E4B68329A4204D908204042FFF752FFB8
:100B90002EE072B6032342691340012B07D1FFF701
:100BA0002BFE174BDA68A24201D10022DA6063699A
:100BB0009B0712D5201C1C3000F0A0FBF0236269BB
:100BC0001340402B06D0502B07D1A06B211C00F006
:100BD00047FE02E0201C00F065FC0A48211CFFF7DC
:100BE00066FD62B6A068FFF76FFD201CFFF76CFD85
:100BF00010BDC046F4FFFFDFF0FFFFDFFF1F002046
:100C00000C00002024000020F8B51F1C134B151CFD
:100C1000C218134B041C0E1C9A4204D8021C114B20
:100C200068329A4204D908204042FFF703FF14E0DB
:100C300072B6FFF7E1FD02231D436369A7631D43FD
:100C4000656162B63368002B02D17368002B04D053
:100C5000201C311C1C3000F0D1FAF8BDF4FFFFDF7E
:100C6000F0FFFFDFFF1F002008B50A4BC2180A4B38
:100C70009A4204D8021C094B68329A4204D90820CF
:100C80004042FFF7D7FE03E072B6FFF7E5FD62B61C
:100C900008BDC046F4FFFFDFF0FFFFDFFF1F0020AD
:100CA00008B5094BC218094B9A4204D8021C084BDC
:100CB00068329A4204D908204042FFF7BBFE01E0A7
:100CC0008368196008BDC046F4FFFFDFF0FFFFDF57
:100CD000FF1F002008B5FFF799FE002801D0FFF79D
:100CE00045FF08BD08B5FFF791FE80239B059B6873
:100CF0008068DB685B689847011C0348FFF7F4FBDA
:100D0000FFF7E8FF08BDC046EC800008002307B5E8
:100D1000054A01A91361D360044A1360044A1360B1
:100D2000FFF7D6FD07BDC0460C00002020000020C4
:100D30002400002010B5FFF769FE041C72B6FFF70F
:100D40005BFD201CFFF706FD62B610BDF0B58026E6
:100D50000023041C314DB605376835602B60B3683D
:100D600080681B6887B0E26801A90830DB69984792
:100D7000B3683760DB68A0685B689847011C284847
:100D8000FFF7B2FB2748A169FFF7AEFBA068083068
:100D900001F054FDA36822699B18984211D3191AD7
:100DA0002148FFF7A1FB21482169FFF79DFB2B6834
:100DB000002B0CD01E48FFF797FB0022174B1A6040
:100DC00010E01C4A01689142E9D10430E5E71A4875
:100DD0000499029AFFF788FB18480399059A019B2A
:100DE000FFF782FBE56B3C21281C06F099FD3C21B6
:100DF000061C281C06F01AFE0D1CFA21206C890026
:100E000006F08EFD311C031C2A1C0D48FFF76CFBFD
:100E10000C48FFF769FB07B0F0BDC0460C0000208E
:100E200018810008228100082C8100083281000806
:100E300037810008CDCDCDCD4F8100085D81000800
:100E40006C810008B2870008F0B54B488FB0FFF7FF
:100E50004BFB4A4C201CFFF747FB72B6484B06ADD4
:100E60001A68002606921A686A601B685A1E934127
:100E70002B72281C03A9FFF741FC002804D003981B
:100E8000FFF764FF0136F4E73E4B1A682A601A68E0
:100E90006A601B685A1E93412B72281C03A9FFF736
:100EA0002DFC071E04D00398FFF750FF0136F4E72E
:100EB000311C80263448FFF717FBB605201CFFF7CE
:100EC00013FB324D3368019335602F606A46B36877
:100ED0002F481B6809A9DB699847019B2D4833609F
:100EE0002D4B1968FFF700FB2C4B2D4A18682D4934
:100EF000904202D104338B42F7D1C91A2A48FFF736
:100F0000F3FA2A482A49FFF7EFFA2B68002B06D09C
:100F10002848FFF7E9FA00221C4B1A600AE026482D
:100F20000C990A9AFFF7E0FA24480B990D9A099B4D
:100F3000FFF7DAFA04A800F07BF8049D3C21281C96
:100F400006F0EEFC3C21061C281C06F06FFD0D1C73
:100F5000FA210598890006F0E3FC311C031C2A1CC9
:100F60001748FFF7C1FA1748FFF7BEFA201CFFF732
:100F7000BBFA62B60FB0F0BD7A810008C7810008E5
:100F80002000002024000020138200080C00002014
:100F9000CC0000202982000870800008001E00207C
:100FA000CDCDCDCD002000202C810008328100085D
:100FB000141F0000378100083B82000847820008A8
:100FC0006C810008B287000803685A689A4201D110
:100FD000002307E01B68136003685A681B685A60A7
:100FE00003685B680360704708B50448FFF77CFA44
:100FF0000C204042FFF71EFD08BDC0465582000888
:1010000008B50448FFF770FA0C204042FFF712FDC4
:1010100008BDC0467782000808B50448FFF764FAA7
:101020000C204042FFF706FD002008BD9882000812
:1010300038B5094B094A1B68051C0360084B10684A
:101040001C68084B1B689847074B0019984201D849
:10105000686000E06B6038BDAC000020C00000207C
:10106000B0000020BC0000203F420F007FB50023ED
:10107000019372B6264D2B68002B3DD002A8FFF7D6
:10108000D7FF80239B059B6828689B6808309B6876
:1010900002A99847002813DB00232C68281C23761C
:1010A000FFF792FF019B002B03D101946460246041
:1010B000E0E71A68636022601A6854601C60D9E730
:1010C0002B689A68029B9A4216D1124C124B2068E8
:1010D0001B689847114E3368C018114B30601B686D
:1010E000206898472B683068DB682168181A0D4B18
:1010F00018600D4B1B68984762B6019C002C06D007
:1011000001A8FFF761FF236960699847F5E77FBD94
:10111000C4000020C0000020BC000020B00000205F
:10112000B8000020C8000020B400002008B572B646
:10113000FFF77EFF62B608BD70B572B60D4C002594
:10114000221CA0321368261C01331360231CBC33FD
:101150001D60B436103B30681B689847231CA833C9
:101160001B6805483168A4349847256062B6FFF7CC
:101170007DFF70BD0C00002080841E0010B572B68B
:101180000A4B181C191CA430BC3104680A681219D7
:10119000026000220A601A1CB433A83212680448A4
:1011A0001968904762B6FFF761FF10BD0C00002080
:1011B00080841E000B4A10B50B4B14689C420CD166
:1011C000036844681360094A80681460084A106024
:1011D000084A09481160984703E00A204042FFF797
:1011E00029FC10BDB4000020E90F0008B800002061
:1011F000BC000020C000002080841E00F0B50D1C43
:10120000041C87B004A8FFF791FF2B6804A8A36013
:101210006B68E360231C0833019380239B059B6864
:1012200001999B680A1CDB68984772B6254E37689F
:101230003B1C5A1E93413D1CDBB20393039B002BC6
:1012400027D06B68281C0293DB1B5A1E9341DBB22C
:10125000039380239B059B6808309B6801999B68DA
:101260009847002813DA3268164B6560954208D11A
:101270001A68126822601A68126854601A6814604A
:1012800017E02B6823602B685C602C6012E0029DE5
:10129000D4E732680B4B002A03D11C6024606460E1
:1012A00008E062601A68126822601A681268546066
:1012B0001B681C600123237662B6FFF7D7FE07B0D8
:1012C000F0BDC046C400002010B5C36986B00193CC
:1012D00002230321041C0293036A0490494201A8DB
:1012E000039300F067F9636ADB0704D5211C201C17
:1012F0002831FFF783FF06B010BD000070B5037EF4
:10130000002B0FD0084D041C2E68864203D1281CE8
:10131000FFF75AFE04E02860281CFFF755FE2E60F8
:101320000023237670BDC046C40000200023016165
:10133000426103767047000070B5061C0D1CFFF774
:1013400065FB80239B059B68041C1B680A48DB68BF
:10135000302198473060002805D11E21201C4942C9
:10136000FFF79EFC06E0054BC461036100230562A4
:101370004061037670BDC046CC000020C912000851
:1013800008B5431C16D00C4B011CC2180B4B9A42DB
:1013900004D8021C0A4B30329A4204D90820404239
:1013A000FFF748FB06E080239B059B6805481B6808
:1013B0005B69984708BDC046F4FFFFDFF0FFFFDF21
:1013C000FF1F0020CC00002070B5041C161C0D1C53
:1013D000FFF71CFB124BE218124B9A4204D8221C56
:1013E000114B30329A4204D908204042FFF722FBC9
:1013F00014E072B662B6237E002B04D00621494267
:10140000FFF74EFC0AE06662F30703D52B68A36280
:101410006B68E362201C291CFFF7F0FE70BDC0461C
:10142000F4FFFFDFF0FFFFDFFF1F002008B50C4BCC
:10143000C2180C4B9A4204D8021C0B4B30329A4211
:1014400004D908204042FFF7F5FA07E072B60123FD
:10145000426A9A434262FFF751FF62B608BDC04636
:10146000F4FFFFDFF0FFFFDFFF1F0020054B064901
:101470001A1CA83211600549B0335160044A1A6041
:101480007047C0460C000020E90F0008011000085A
:101490001910000808B580239B059B68DB685B6812
:1014A000984708BD01235B42C3657047F0B58BB018
:1014B000041C0391151C1E1E109F864206D19868BD
:1014C000FFF7E8FF011C3A48FFF70EF8039B201CCA
:1014D0006366291C4022231CFFF796FB72B6216D20
:1014E000636D8B4218D01422201C5A436830821836
:1014F0001068B04201D0B01C07D15268BA4202D184
:101500001D1E0DDA0AE07A1CFAD0A06D5A1C0023C9
:101510008242E6D2131CE4E701256D42E6652766A8
:1015200062B6002D42DB271C636D683714269D428E
:101530002AD0331C6B430193FB18191C05A8321CDD
:10154000029306F08DFB01991439002D03DCA36D85
:101550005E43311C143979180298142206F080FB7E
:1015600001981438002D03DC1420A36D584314385F
:10157000381805A9142206F073FB002D02DCA36DB8
:101580005D1ED0E7013DCEE7754303987919321C03
:1015900006F066FB72B6636DA26D01339342924111
:1015A0001340636562B6201CFFF75EFB0BB0F0BD15
:1015B000BC820008F7B53E4B0468051CE2183D4BA1
:1015C0000E1C9A4204D8201C3B4B6830984204D928
:1015D00008204042FFF72EFA68E072B6E36D8B42B6
:1015E00001D0023349D1236E6A68934201D001339E
:1015F00043D101235B42E36523660122002362B6E7
:10160000002A0DD06A68636E201C5A60AA689A602E
:10161000EA68DA602A691E601A61FFF725FB45E077
:10162000002B09D06A685A60AA689A60EA68DA6092
:101630002A691E601A6139E00F21201C4942FFF718
:101640002FFBA068FFF726FF011C1C48FEF74CFF8C
:10165000F31C03D11A48FEF747FF06E0B068FFF716
:1016600019FF011C1748FEF73FFF2B690435009353
:1016700015480ECDFEF738FF18E0236DA16D5A1CFA
:101680009C4600278A420FD3636D9F4209D08A424D
:1016900089410A40226563461422534300221B18E5
:1016A000ADE70022131CAAE7171CEDE7F7BDC04603
:1016B000F4FFFFDFF0FFFFDFFF1F002015830008AE
:1016C000388300084983000856830008002900D1A8
:1016D0000131002343650365013B8165C3650366F2
:1016E000704710B5041CFFF791F9011C201CFFF78F
:1016F00061FF10BD73B50D1C061C141CFFF786F9A5
:1017000001235B420093311C2A1C231CFFF7CEFEF1
:1017100073BDF7B5041C0F1CFFF778F9051C201CDE
:10172000291C2668FFF746FF6368281C00933A1CB3
:10173000331C211CFFF7BAFEF7BD03688268013332
:101740009342924140681340181A42424241D0B23B
:10175000704703685A689A4201D1002307E01B686A
:10176000136003685A681B685A6003685B6803600B
:10177000704738B50568041C8D4202D1FFF7E9FFB8
:1017800003E00160FFF7E5FF256038BD08B5802361
:101790009B059B68011C1B680148DB68984708BDD6
:1017A000CC00002008B580239B059B68011C1B68AA
:1017B00001485B69984708BDCC00002038B5041C7F
:1017C0002569002D28D0201CFFF7B7FF002823D162
:1017D000201CFFF7B2FFAB69002812D1002B12D0FA
:1017E0002168A2684B1C93429241134023606B69AD
:1017F000E0685A1C6A611B784354AB69013BAB61DA
:10180000E6E7002BDCD1201C2B741030FFF7A1FF82
:10181000E868FFF729FAD3E738BD38B5041CFFF7AD
:101820008CFF002812D0A3682169581E0B1C5A1E79
:1018300093410A1CDBB2002B11D054689269631AE1
:101840005D1EAB418018DBB2221CF4E762682168A0
:10185000881A8A4203D9A368C8180138801A38BD8B
:10186000104B10B5C218104B041C9A4204D8021C2D
:101870000E4B1C329A4204D908204042FFF7DAF896
:101880000EE0037C012B04D0022B07D180681030BE
:1018900001E080681430211CFFF76BFF00232374E4
:1018A00010BDC046F4FFFFDFF0FFFFDFFF1F002089
:1018B000F8B5041C0D1CFFF7A9F8061C2020FFF743
:1018C00065FF071E206002D1301C1E210CE0281C81
:1018D000FFF75CFFF8602068C768002F08D1FFF7AA
:1018E00061FF301C1F2127604942FFF7D9F908E04A
:1018F000012200235242436003608560826143619C
:101900000361F8BD70B5041C0D1CFFF77FF8061CC1
:10191000631C01D12C6020E0104BE218104B9A425E
:1019200004D8221C0F4B20329A4204D9082040428E
:10193000FFF780F811E01C20FFF728FF286000283F
:1019400006D00022C6602B689C602B681A7404E0E5
:101950001E21301C4942FFF7A3F970BDF4FFFFDFE1
:10196000F0FFFFDFFF1F002010B5431C27D0144BF2
:10197000041CC218134B9A4204D8021C124B1C328E
:101980009A4204D908204042FFF754F817E0037C3C
:10199000012B04D0022B0FD18068103001E0806849
:1019A0001430211CFFF7E5FEE068FFF75DF90B211D
:1019B000E0684942FFF774F9201CFFF7F3FE10BD01
:1019C000F4FFFFDFF0FFFFDFFF1F00200A4B10B521
:1019D000C2180A4B0C1C9A4204D8021C084B203235
:1019E0009A4204D908204042FFF724F802E0FFF7AA
:1019F00014FF206010BDC046F4FFFFDFF0FFFFDFE3
:101A0000FF1F002038B5194BC218194B9A4204D851
:101A1000021C184B20329A4204D908204042FFF79A
:101A200009F822E003684468A34215D1836840693D
:101A3000013B0B60031C5A1E9341021CDBB2002BBE
:101A400013D054689269231A5D1EAB410D68DBB256
:101A5000AA180A60221CF2E79C4201D9E31A03E0AB
:101A60008268A218013AD31A0B6038BDF4FFFFDF79
:101A7000F0FFFFDFFF1F002070B5194B86B0C218C2
:101A8000184B041C0E1C9A4204D8021C164B203220
:101A90009A4204D908204042FEF7CCFF1EE0FEF730
:101AA000B5FF051C201CFFF7B8FEA369013310D158
:101AB00000280BD0032101230590494201A801957C
:101AC000029303960494FFF775FD07E0A561E661B4
:101AD00004E00E21281C4942FFF7E2F806B070BD71
:101AE000F4FFFFDFF0FFFFDFFF1F00200F4B10B5FB
:101AF000C2180F4B041C9A4204D8021C0D4B203212
:101B00009A4204D908204042FEF794FF0CE0FEF709
:101B10007DFFA369984203D101235B42A36103E0E7
:101B20000E214942FFF7BCF810BDC046F4FFFFDFAD
:101B3000F0FFFFDFFF1F0020F0B5494B161CC21855
:101B4000484B8BB0041C0D1C9A4204D8021C464B17
:101B50001C329A4204D908204042FEF76BFF7DE018
:101B6000FEF754FFA6610190A369002B3DD0A26847
:101B70005769002F39D0BA697869291C934211D36B
:101B800006F06EF8A369BA69A0689B1AA361BB69E5
:101B90001430ED18FFF7DDFD0023F8683B74FFF704
:101BA00063F8E1E71A1C06F05BF8A3697A69D218BA
:101BB0007A61BA69D31ABB61A369ED180023A361E6
:101BC000D2E7A768381CFFF7B8FD002811D13968A3
:101BD000BA684B1C9342924113403B602B78F868E3
:101BE00001354354A369013BA361A369002BE8D1EC
:101BF00011E00223656123743B69002B24D13C6111
:101C000024606460002301980493039303A9502285
:101C1000231CFEF7F9FFA468A3695A1C1ED0002EEE
:101C20001CD0059301230693E369201C07930894B5
:101C3000FFF7F3FD012303215B420990A36105A88F
:101C40004942FFF7B7FC09E063603B691B6823600A
:101C50003B691B685C603B691C60D3E70BB0F0BD5F
:101C6000F4FFFFDFF0FFFFDFFF1F00203E4BF7B563
:101C7000161CC2183D4B041C0D1C9A4204D8021CB1
:101C80003B4B1C329A4204D908204042FEF7D2FE58
:101C900068E0FEF7BBFE291C071CA661A3690E1CA9
:101CA000002B2DD0A36858681A68824228D09D68FE
:101CB000421CAA42AD41DE682A405A60335C0B7078
:101CC000A3690131013BA361E8E7A3681D69002D09
:101CD0002CD0AB69301C69699A4215D31A1C05F0E7
:101CE000BFFFA369AA69A0689B1AA361AB69103002
:101CF000F61800232B74FFF72CFDE868FEF7B4FFFD
:101D0000A269002AE1D10DE005F0AAFFA269AB6942
:101D10009B1AAB61A2696B69B6189B186B610023B3
:101D2000A361EDE7A068FFF749FD1BE001226661B2
:101D300022745A69002A03D15C612460646008E05F
:101D400062605A69126822605A69126854605B695D
:101D50001C600023381C0193009369465022231C09
:101D6000FEF752FFF7BDC046F4FFFFDFF0FFFFDFD5
:101D7000FF1F002038B5114B041CC218104B9A42AB
:101D800004D8021C0F4B20329A4204D9082040424A
:101D9000FEF750FE11E04368036001235B4283615C
:101DA0002569002D09D00023201C2B741030FFF76B
:101DB000D0FCE868FEF758FFF2E738BDF4FFFFDF1C
:101DC000F0FFFFDFFF1F002038B5431C3BD01E4B48
:101DD000041CC2181D4B9A4204D8021C1C4B203212
:101DE0009A4204D908204042FEF724FE2BE02569E0
:101DF000002D0FD0201C1030FFF7ABFCE868FEF779
:101E000033FF0B21E8684942FEF74AFF281CFFF721
:101E1000C9FCECE76569002D0FD0201C1430FFF7DA
:101E200098FCE868FEF720FF0B21E8684942FEF7BE
:101E300037FF281CFFF7B6FCECE7E068FFF7B2FCC1
:101E4000201CFFF7AFFC38BDF4FFFFDFF0FFFFDF22
:101E5000FF1F002000228368DA61013A1A6270478E
:101E6000F8B5061C0125141C0F1CFEF7CFFDB36846
:101E7000DA692A4215D09A6AA24212D3596A221C00
:101E8000381C05F0EDFEB3689A6AA24203D1DA6904
:101E9000AA43DA6109E0596A0919141B59629C6264
:101EA00003E00E214942FEF7FBFEF8BDF8B5061C23
:101EB0000225141C0F1CFEF7A9FDB368DA692A423B
:101EC00015D09A6AA24212D3586A221C391C05F016
:101ED000C7FEB3689A6AA24203D1DA69AA43DA61FB
:101EE00009E0596A0919141B59629C6203E00E212A
:101EF0004942FEF7D5FEF8BD03685A689A4201D1FF
:101F0000002307E01B68136003685A681B685A6067
:101F100003685B680360704708B580239B059B6876
:101F2000011C1B6801485B69984708BDCC00002074
:101F300070B572B6037E002B0FD0041C081CCE6C4B
:101F40000D1C4C30A64202D1FFF7D6FF03E0CC6453
:101F5000FFF7D2FFEE640023237662B670BD000067
:101F6000F7B58027051C0191FEF750FDBF05BB6842
:101F7000041C1B681248DB681C2198472860002855
:101F800017D0446104612E68019B0D48F360002363
:101F90003376BB6801991B68DB689847B060286896
:101FA0008668002E0AD1FFF7B7FF2E60201C1F2184
:101FB00001E0201C1E214942FEF772FEF7BDC0461B
:101FC000CC00002070B5431C27D0144B041CC21851
:101FD000134B9A4204D8021C124B1C329A4204D969
:101FE00008204042FEF726FD17E072B6037E002B64
:101FF0000CD04569281CEE6C4C30A64202D1FFF78C
:102000007BFF03E0EC64FFF777FFEE6462B6A06845
:10201000FFF782FF201CFFF77FFF70BDF4FFFFDF9B
:10202000F0FFFFDFFF1F002038B5041C0D1CFEF77A
:10203000EDFC194BE218194B9A4204D8221C184B9C
:102040001C329A4204D908204042FEF7F3FC21E0FA
:102050006369834218D172B6227E002A11D10132FF
:102060002276DA6C002A03D1DC642460646008E024
:102070006260DA6C12682260DA6C12685460DB6CA1
:102080001C6062B6A36804E00E214942FEF708FE18
:1020900000232B6038BDC046F4FFFFDFF0FFFFDFF9
:1020A000FF1F002010B5041CFEF7B0FC0D4BE2181A
:1020B0000D4B9A4204D8221C0C4B1C329A4204D974
:1020C00008204042FEF7B6FC0AE06169814203D174
:1020D000201CFFF72DFF03E00E214942FEF7E0FD33
:1020E00010BDC046F4FFFFDFF0FFFFDFFF1F002041
:1020F00038B5041C0D1CFEF789FC0D4BE2180D4B86
:102100009A4204D8221C0C4B1C329A4204D9082053
:102110004042FEF78FFC0AE06369834201D1E36825
:1021200004E00E214942FEF7BBFD00232B6038BDC1
:10213000F4FFFFDFF0FFFFDFFF1F002038B5041CB6
:102140000D1CFEF763FC124B124AE318934204D8AD
:10215000211C114B1C31994204D908204042FEF742
:1021600069FC13E00A4969189142F6D82A1C6832C2
:102170009A42F2D86169814204D1201CFFF7D8FE4F
:10218000656103E00E214942FEF78AFD38BDC04675
:10219000F4FFFFDFF0FFFFDFFF1F0020F8B5151C85
:1021A000071C0E1CFEF732FC041C311C381CFFF708
:1021B000C5FF281C211CFFF7FDF9F8BD10B5041C54
:1021C000FEF724FC0E4BE2180E4B9A4204D8221C58
:1021D0000D4B1C329A4204D908204042FEF72AFCDB
:1021E0000DE02369834206D1201C6169FFF7A0FE40
:1021F0002369636103E00E214942FEF751FD10BDE2
:10220000F4FFFFDFF0FFFFDFFF1F0020054B01227F
:10221000191C5242CC31DC330A604A608A60CA60C1
:102220001A6070470C00002038B5041C0D1CFEF726
:10223000EDFB042C10DC0B4A0B4BA400E318A41894
:102240002268511C03D0904204D16A1C02D1CC33C5
:102250001D6005E00E2100E00D214942FEF720FD42
:1022600038BDC046D80000200C00002038B5041C42
:102270000D1CFEF7CBFB042C05DC054BA400E41879
:1022800063682B6003E00D214942FEF709FD38BD6C
:10229000D4000020F0B5314BC68885B0F718032371
:1022A000051C3340301C6421009305F0BFFB8BB24A
:1022B000642100244942381C019305F0C1FB4422EB
:1022C000211C019B013B9BB29A426141431A009938
:1022D0006E220139484241410293FB179B0FDB19E3
:1022E0009B105B18C821FF327A43013AD318301C87
:1022F0004900039305F09AFB8EB2C821381C4900AF
:1023000005F09EFBB823211C721E92B25B00934223
:102310006141009A4318A24205D1019A0134002A72
:1023200001D1744274413C22A9786E7851438919D5
:102330004A43287811180C2044432A79A418084AE3
:102340006400A05AEA78821803988218029810183C
:10235000C018044B5843081805B0F0BD4EF8FFFFF5
:10236000F483000880510100F7B50D1C3C21041CCA
:1023700005F05CFB201C29703C2105F0D1FA3C21C2
:10238000041C05F053FB201C69703C2105F0C8FAC1
:102390001821041C05F04AFB201CA970182105F027
:1023A000BFFA041C394BEB800326EF883E4010D166
:1023B000381C642105F03AFB8BB20193002B55D1F8
:1023C000C821381C490005F031FB8EB2002E54D0D4
:1023D00006E0B6235B009C4216D96E21FF310EE069
:1023E000B6235B009C420ED9C821381C490005F079
:1023F0001DFB89B24B1E9941B7235B00591A013767
:10240000641AEF80D0E7019E0023381C2B716421F1
:1024100005F00CFB8BB2C821381C4900019305F074
:1024200005FB89B20027BE4205D1019B0137002B75
:1024300001D14F424F410C237B432A7914489B180A
:102440005B001B5A9C421DD30027BE4205D1019B55
:102450000137002B01D14F424F410C237B439B1886
:102460005B00C35A0132E41A2A71DBE76E23FF33A3
:102470009C42C9D9B7214900C1E76E23FF339C4272
:10248000B2D8C1E70134281CEC70FEBDB2070000D1
:1024900094830008036810B50C6840681B1913602A
:1024A0004B68C3185360536804498B4205D91168BF
:1024B0000131116002495B18F4E710BD3F420F0083
:1024C000C0BDF0FF38B50C1C0549051C05F028FA05
:1024D00003492060281C05F0A9FA616038BDC04698
:1024E00040420F0038B50C1CFA218900051C05F08C
:1024F00017FAFA2120608900281C05F097FAFA23C0
:102500009B005943616038BD0268054B9A4204D86C
:10251000044B5A434368D01800E003487047C04654
:102520006208000040420F00805CE97F10B5084B54
:1025300004689C4209D8FA214068890005F0F0F946
:10254000FA239B006343C01800E0024810BDC04658
:102550009AC4200090F9FF7F002208B5011C131CCB
:102560000C20FDF739FE08BD10B503680C68021C8D
:1025700001209C420BD808D14B685268934206D880
:102580009B1A581E8341584201E00120404210BD71
:1025900070B5051C0E1C141CFFF7E6FF002811DDAA
:1025A00033682A6869689A1A736822608B4202D37A
:1025B0005B1A636009E00548013A1B185B1A636007
:1025C000226002E000236360236070BD40420F0080
:1025D00013B5041C6846FFF7BFFF201C69466A4616
:1025E000FFF7D6FF6846FFF78FFF16BD13B5041C33
:1025F0006846FFF7B1FF201C69466A46FFF7C8FF2F
:102600006846FFF793FF16BD37B50C1C051C6846DE
:10261000FFF7A2FF281C6946221CFFF7B9FF201C08
:102620003EBD0323033199430B1D836043600023A8
:102630000B600360704730B500293CD0002203686E
:10264000002B04D0994202D91A1C1B68F8E78B4270
:102650000DD00C1F25688D4209D9002B01D09D4259
:1026600005D8002A0AD0151F2D688D4206D980236F
:1026700020229B051B6852421A601CE00B60002A56
:102680000CD01160002B0FD0206898420AD1181F7F
:1026900000682060186808601B6803E00160002B78
:1026A000F2D108E0002A06D0101F05688D4202D141
:1026B00021680160136030BD836870B51E1F3268E9
:1026C000002A04D080239B051B6820220AE0C91839
:1026D0000D1D9D4202D36B46AB4207D880231D22BD
:1026E0009B051B6852421A60002007E0041C3560FD
:1026F0000A60A168FFF79FFF0120A56070BDF8B5D3
:102700000323CD1C9D4300290BD08368041CEA18C9
:1027100002269A421BD280231D229B051B6852422F
:102720001A60002026E0031F1F6841199C460B1DFC
:10273000BB420FD9021C00680028F4D1201C291CC0
:10274000FFF7BAFF0028ECD0012EEAD0012620685E
:102750000022F1E70D1C0C35BD4205D80F60614623
:102760000B600168196003600368002A01D01360E0
:1027700000E02360F8BD0323F0B5D71C85B0041C2E
:102780000D1C03929F43002904D1391CFFF7B7FFAA
:10279000071C50E00B1F00931E6802230293002FBA
:1027A00045D000222368002B14D0B34212D80ED19A
:1027B000191F096801910198009908601B68002A97
:1027C00001D0136000E02360009B1E6802E01A1C29
:1027D0001B68E8E7731B043B01939F4204D8EB1985
:1027E000191DB14210D918E0A3689E42F7D1019B90
:1027F000201CF91AFFF760FF0028F0D0029B012B84
:10280000EDD001230293CCE7721A2F1C072A12D9AC
:102810001E60009B201C19600BE0201C0399FFF731
:102820006EFF071E07D0291C019A05F019FA201C1B
:10283000291CFFF700FF381C05B0F0BD806804308C
:10284000704730B54468002C28D08268002A25D013
:10285000944223D80368934220D8101F00680028B0
:102860001CD1051C91420ED280231D229B051B68A2
:1028700052421A601BE0944210D8211F0968251C9F
:10288000002907D00C1CA542F5D907E0934205D8D2
:10289000191C1B68002B09D09942F7D980232022EC
:1028A0009B051B6852421A60002000E0012030BDE9
:1028B00070B5061C151C081C14220C1C002105F008
:1028C00059FA301C291CFFF7BCFFB268002804D15C
:1028D000131C0C339D421ED229E031687668964263
:1028E000F6D0331F1868831B043B8E420BD121683E
:1028F0000131216021698B4200D92361A168CB1885
:10290000A360316805E0666801366660E668F31822
:10291000E360061CE3E72368AD1A013323602369F3
:10292000083D9D4200D92561A3685D19A56070BD71
:1029300070B5041C0D1C161C0A2C05DD06480A2166
:10294000321CA8470A3CF7E7002C03DD0248211C93
:10295000321CA84770BDC0463B84000870B5041CFB
:102960000D1C161C0A2C05DD06480A21321CA8473E
:102970000A3CF7E7002C03DD0248211C321CA84763
:1029800070BDC0462484000838B5031C0C1C151CFF
:10299000191C1068221C05F063F92B681C192C60A7
:1029A00038BD30B50023041C221A8A420ADA257881
:1029B00001342A1C303A092A04D80A225343303BF6
:1029C0005B19F1E7181C30BDF7B5051C0E1E00920F
:1029D00001931ED0071C0A37301C009905F026F819
:1029E000C9B20B1C3033DBB2092906D9019A37234F
:1029F000002A00D120335918CBB23B70301C00990B
:102A000004F08EFFEC1B0B34061C013F0028E3D1C1
:102A100002E0302301248372291B281C0B31221C65
:102A200005F05CF9201CFEBD0F4A38B5031C0C1CD8
:102A30000025904205D9830A0135934201D99B0AAA
:102A40000135191C201C0A220023FFF7BDFF002DB1
:102A500006D0064A431C525D225442220230E25400
:102A60000023235438BDC0460E2700002D840008E3
:102A7000F0B58FB0039300230C1C1D1C1F1C059088
:102A800002920793059B5B5D002B00D1BCE1691CA2
:102A9000252B00D0B4E1059B0E1C5B5C252B09D1D6
:102AA000059BC91BD819039A029BAF1C98473D1C74
:102AB0000694A7E1BD4205D9059BE91BD819039AE5
:102AC000029B98470125059B98190378002B24D079
:102AD000EA0719D52B2B0ED005D8202B0DD0232B90
:102AE0000FD110230AE02D2B03D0302B09D1202346
:102AF00004E0022302E0042300E008231D43013622
:102B0000E1E701239D43DEE7371C01952A2B06D11F
:102B1000236801370493043410E0371C0195059BAA
:102B2000DB5D303B092B01D80137F8E70023049324
:102B3000B74203D9B91BFFF734FF0490059B012668
:102B4000DB5D2E2B19D1059ABB19D01802782A2AE1
:102B500001D01F1C03E02668023704340DE0059AFB
:102B6000D25D303A092A01D80137F8E701269F42A1
:102B700003D9F91AFFF715FF061C059BDA5D7B1CCC
:102B8000682A02D06C2A03D003E040222A43019233
:102B90001F1C059BDB1908931B78692B31D00BD8C0
:102BA000622B00D1B0E002D8582B70D0BFE0632B6D
:102BB0000ED0642B25D0BAE0732B11D003D86F2B25
:102BC00000D183E0B3E0752B4BD0782B5FD0AEE023
:102BD000231D226806930AABDA7001240025A9E0C0
:102BE000231D069323680025181C079305F008F998
:102BF000041C012E00D89DE0864200D39AE0341CCC
:102C000098E0019B9B0603D5049B9E4200D21E1CAC
:102C1000231D0693019B24685B0600D524B2002C7B
:102C20000EDA61420A2200230BA8FFF7CDFE8023B3
:102C3000019A5B421343DBB2051C441C019371E013
:102C40000025AC426ED02B1C211C0A220BA8FFF7DA
:102C5000BBFE0C23019A041C1340051C5A1E934111
:102C60004EE0019B9B0603D5049B9E4200D21E1C96
:102C7000231D0693019B21685B0600D589B20029BC
:102C800040D00BA80A220023FFF79EFE48E0019ADD
:102C9000920603D5049A964200D2161C221D069273
:102CA000019A2168520600D589B200292AD0583BE2
:102CB0005A4253410BA8DBB21022FFF785FE019B5D
:102CC000041C051CDB062DD502342BE0019B9B0662
:102CD00003D5049B9E4200D21E1C231D0693019B1C
:102CE00021685B0600D589B200290BD000230BA810
:102CF0000822FFF769FE041C051C019BDB06DB0FA5
:102D0000E4180FE00C1C0CE0231D0693019B2068C7
:102D10005B0600D580B2002802D00BA9FFF784FE25
:102D2000041C251CB54205D2611B8C1902E00694D7
:102D30000024251C0223019A1A40099205D1049B04
:102D40000299181B039AFFF7F3FD089B01371B78C4
:102D5000692B1DD00AD8622B1AD002D8582B26D046
:102D600043E0632B0DD0642B12D03EE0732B0CD0CC
:102D700002D86F2B23D038E0752B09D0782B16D0D2
:102D800033E00AABD81C01212CE00798211C29E074
:102D9000019B22481B0618D4002D1AD0019B204805
:102DA0005B0712D4019B1F481B0712D50DE0002DB5
:102DB0000FD0019BDB060CD51B48022106E0002D3D
:102DC00007D0019BDB0604D518480121039A029B1A
:102DD0009847B54204D2701B0299039AFFF7BEFDD3
:102DE000291C0BA8039A029B9847099B3D1C002BAA
:102DF00008D0049B0299181B039AFFF799FD01E084
:102E00000D1C0694069C3DE6BD4205D9059BE91BB9
:102E1000D819039A029B98470FB0F0BD328400087E
:102E20003484000839820008368400083984000898
:102E300007B5019001AB081C111C034AFFF718FEEF
:102E40000023019A137007BD8929000870B5151C6D
:102E500080230C1C291C9B059A686143061C126880
:102E600018680C310830D36898473060002803D0C8
:102E7000002345600360846070BD802310B5041C8E
:102E80009B059A681868126808305369216898474A
:102E90000023236010BD031E0ED00368994207D3A0
:102EA00080230D229B051B6852421A60002303E019
:102EB00083684B430C33C318181C7047031E00D0A3
:102EC00018687047016838B5002917D0041C4A6893
:102ED0000868431C824201D90B600EE00B6080231E
:102EE0009B0598680132056818688B684A605A43E8
:102EF00008300C322B69984720602168081C38BDC7
:102F00000068002801D0002303607047F8B5041C56
:102F10000D1CFFF7D7FF00281CD020680668B542BB
:102F200006D380230D229B051B6852421A6011E0D4
:102F300087686B1C7B431A1CD91B0C3282180B1C34
:102F40009446721E0C33521BC1187A43604604F03B
:102F5000C5FE2068F8BDF8B50368002B1DD01D68BC
:102F6000A94206D380220D219205126849421160C0
:102F700013E09A680C1C171C4F43061C381CB91828
:102F8000013D0C300C312C1B18185918624304F009
:102F9000A5FE33681A68013A1A60181CF8BD01686A
:102FA00038B5002910D080239B059A68041C156849
:102FB00018680A688B6808305A432B690C329847A6
:102FC000011C036820604360081C38BD08B5024A34
:102FD0000023FFF74DFD08BD1D30000870B58024AB
:102FE000061C0D1C0021A405131C22681E20116064
:102FF000311C2A1CFDF7F0F8236818684342584139
:10300000C0B270BD07B56B46D91D802308709B0503
:103010001B6801225869FFF7E1FF07BD0A1C8021E8
:1030200008B5031C890509684869191CFFF7D6FF14
:1030300008BD38B580239B051B68041C5D6904F03E
:10304000DFFE211C021C281CFFF7C8FF38BD8023AF
:10305000002213B59B051B681F2099691A606B46F7
:10306000DC1D221C0123FDF7B7F8207816BD70B5D2
:10307000051C0E1C041CFFF7EAFF20700A2805D06F
:10308000721E631B934201DA0134F4E70023281C0B
:10309000237070BD10B5041C2C34012908D10379AC
:1030A00004200B4203D1201C04F0AAFE0130241896
:1030B000201C10BD0279031C2C30D20700D5D86A21
:1030C000704700000309044A9B009A580F231840D8
:1030D0000E3B83409361704790860008024B80004E
:1030E000C35899617047C046908600080309044A96
:1030F0009B009A580F2318400E3B83409362704701
:1031000090860008024B8000C35899627047C04601
:1031100090860008054A03099B009B580F221B69F3
:103120001040C340181C01231840704790860008C7
:10313000024B8000C3581869084070479086000809
:10314000012349008B40191C064B8000C3580139EC
:103150001A6805488A431A601A68014011431960C9
:103160007047C0469086000855555555064B80005F
:10317000C05801234A005B429340191C10B50468F3
:103180002140016010BDC04690860008012307B5AC
:103190005B4201932D20012101AA0023FDF71CF8B9
:1031A00001980EBD802313B5041C9B059B686946DE
:1031B0009B6800209B6998471620211C6A460023C3
:1031C000FDF70AF813BD000010B586B0041CFFF728
:1031D000DDFF064B01900293002301A803940493A2
:1031E0000593FFF7DFFF06B010BDC04601000100E8
:1031F00038B50C1C0501002C0BD0201C04F012FD6E
:103200001F2301221B1A9A4058199443FFF7DCFF31
:10321000F1E738BD30B587B0032928D8041C8025D4
:10322000081C6D0204F068FB02091017FFF7AEFFDF
:10323000029501900394192313E0FFF7A7FF02956D
:103240000190039418230CE0FFF7A0FF0295019072
:103250000394382305E0FFF799FF58230295019066
:1032600003940493002301A80593FFF79BFF07B085
:1032700030BD70B50E1C141C0501002C0CD0201C98
:1032800004F0D0FC1F2301221B1A9A405819311C4C
:103290009443FFF7BFFFF0E770BD08B580239B059F
:1032A0009A68011C12681868D3680830984708BDEE
:1032B00008B580239B059A68011C12681868536939
:1032C0000830984708BD000010B50C4B88B0049337
:1032D000802300249B059B6803909B6805910692C0
:1032E000201C01A907949B699847162003A901AAED
:1032F000231CFCF771FF012008B010BD01000F0076
:10330000F0B51E1C012387B05B420190029103922D
:10331000059305AA00232D200221FCF75DFF012360
:103320000D9A059F1A4000920C25002A01D10C9D90
:103330000835281CFFF7B1FF041E2DD00D9B23700C
:103340006B461B89E3701B0A23716B469B89637074
:103350001B0AA370009B002B01D0A66005E0201C77
:10336000311C08302A1C04F07BFC80260122B605A3
:103370003368381CD9691F620A43DA615C629D6256
:1033800001992A1CFFF7A0FF201CFFF791FF33686B
:103390001B6858425841C0B207B0F0BD08B5031CC5
:1033A0000A1C2F20191C0023FCF716FF08BD0FB4C0
:1033B000802307B504A901C99B0501919B685B683F
:1033C0005B68984703B008BC04B018470FB480236B
:1033D00013B504A901C99B0501919B68044A5B6868
:1033E0001C680023A04713BC08BC04B01847C046A3
:1033F0009D33000808B580239B059B689B689B69EB
:10340000984708BD012307B55B42011C01932D209D
:1034100001AA0023FCF7E0FE01980EBD13B5041CC1
:1034200069460020FFF7E6FF1620211C6A460023AC
:10343000FCF7D2FE13BD00007FB5054B019001A83B
:10344000029303910492FFF7E9FF039807B000BDD0
:10345000051000007FB50120FFF7D4FF80231B0378
:103460000293064B01900393002301A80493059354
:10347000FFF7D4FF049807B000BDC0461100070055
:10348000F0B5002080268FB009AA031CA949B60513
:10349000FCF7A2FEB36800215B691E201B689847F9
:1034A000B3681E205B69A0259B6998470120FFF740
:1034B000A9FF80235B020A9309230B931133099020
:1034C0000C9309A8163B0D93ED02FFF7A7FF01200F
:1034D000FFF798FF291C0222FFF7AEFFE1235B02F2
:1034E0000C93954B01200D93C023DB020A930B959F
:1034F000FFF788FF099009A8FFF790FF0120FFF769
:1035000081FF00248D4B099009A80A930B950C9418
:103510000D94FFF783FF0120FFF774FF884B09909C
:1035200009A80A930B950C940D94FFF777FF0C9B59
:10353000211C1A1C01932C20231CFCF74DFE201C7F
:10354000FFF760FF011C431C08D0231C182009AAA8
:1035500035680994FCF740FE099B6B61B02200239B
:103560005203102009A9FCF737FEFA20099C8000BD
:1035700009A90894FFF73EFF211C112009AA002386
:10358000FCF72AFE00220C2002A9131CFCF724FEE3
:103590006C4C002130200A1C0B1C013CFCF71CFE6B
:1035A000002CF6D18025AD05AB6802A89B68DB6ACC
:1035B00098476449061C04F0B3F9FA21071C8900F6
:1035C000301C04F0ADF90A2104F030FA5E480A1C00
:1035D000391CFFF7ECFE221C231C0C2002A9FCF76F
:1035E000FBFD584C002108200A1C0B1C013CFCF779
:1035F000F3FD002CF6D1AB6802A89B68DB6A984704
:103600005049051C04F08CF9FA21061C8900281C7D
:1036100004F086F90A2104F009FA4C480A1C311C0E
:10362000FFF7C5FE0120FFF7EDFE802309909B0206
:1036300009A80A930B940C940D94FFF7EFFE0C9BD2
:103640004348191C0193FFF7B2FE231C211C221CC6
:103650000920FCF7C1FD3F48FFF7A9FE04A800F0D0
:103660005FF90120FFF7CEFE3B49221CFFF7E4FE85
:103670000120FFF7C7FE39490522FFF7DDFEFFF7FE
:10368000E9FE802600240225B6053368201C1C6054
:1036900002A96D42FFF7AEFE09A9152002AA2B1C54
:1036A000FCF79AFD0A99012911D0A14235D00229CF
:1036B00012D0F0231B03994222D10B9B04A8019343
:1036C0006B46197900F078F8A042DAD025E004A81A
:1036D0000D9900F0E9F8D4E72148FFF768FEFFF7FD
:1036E000B9FE011C1F48FFF762FEFA20089D80000A
:1036F00002A9FFF77FFE1120291C02AA231C16E055
:103700001948FFF754FE19480999FFF750FE184869
:103710000B99FFF74CFE33681D60802300229B0548
:103720001B6814201B6809A901930D93131CFCF757
:1037300053FDA6E7FC860008014E080004000600C1
:1037400008100000102700000085000824850008EC
:103750004385000854850008130007001100070086
:103760005F85000878850008838500089885000833
:10377000A685000810B580240023A4052268011C3A
:1037800013601C201A1CFCF727FD236818684342AD
:103790005841C0B210BD802313B5041C9B059B6823
:1037A00069469B6800209B6998471620211C6A4641
:1037B0000023FCF711FD13BDF0B5002589B00329E6
:1037C00064D8041C081C04F097F83D3D0202012354
:1037D00000255B42022103AA03932D200023FCF75E
:1037E000FBFC2C4E2C4B03A8039F049305960695D7
:1037F0000795FFF7D0FF069B03A80093274B03977D
:103800000493059606950795FFF7C5FF069B1820BC
:103810000193A360009903AA2B1C0395FCF7DCFC21
:10382000039B18202360A16803AA2B1C0395FCF7B7
:10383000D3FC039BA068636001232373FFF79AFF07
:10384000174821E0237B0125002B1FD08023002671
:103850009B051B68A1681D201E60321C331CFCF7F1
:10386000BBFC19202168321C331CFCF7B5FC192065
:10387000331C6168321CFCF7AFFC012309485B4232
:10388000A360236063602673FFF791FD281C09B0D5
:10389000F0BDC04600010E00081000000710000037
:1038A0000C86000818860008F0B5041C85B018487E
:1038B00001910026FFF77BFD019B9E4220D08027CF
:1038C0000022BF053B6861681A6002ABDD1D1F2046
:1038D0002A1C0123FCF780FC00223B6821681E2083
:1038E0001A6001232A1CFCF777FC297809480B1C75
:1038F000203B5E2B00D90848FFF759FD0136DBE776
:103900000648FFF754FDA068FFF734FF05B0F0BD8F
:10391000238600082B8600082E860008B287000840
:1039200001235B42F0B58360036043600020002404
:1039300089B003AA3149031CFCF74EFC304B03A8A5
:1039400001250493059406940794FFF724FF12239E
:10395000211C0093221C0195201C2A4BFFF7D0FC50
:10396000432304260093211C221C0195264B022090
:10397000FFF7C6FC211C221C00960195301C234B2E
:10398000FFF7BEFC0E23224F0093291C3A1C019521
:10399000301C204BFFF7B4FC10233A1C0093019518
:1039A000301C02211C4BFFF7ABFC1A233A1C00937E
:1039B0000195301C0321194BFFF7A2FC1023311C89
:1039C00000933A1C0195301C154BFFF799FC01231D
:1039D0005B42022103AA03932D20231CFCF7FCFB6E
:1039E000104B03A80493E0231B0305930694FFF7F1
:1039F000D2FE0D48FFF7DBFC09B0F0BD848700085C
:103A000003000F005D860008B98500086F86000876
:103A1000090400004F8600083F86000873860008EE
:103A2000FC8500080510000033860008C3685A1C96
:103A3000C260002B04D10121024A536B0B43536334
:103A40007047C04600100240C368013BC360002BB2
:103A500004D10121024A536B8B4353637047C04624
:103A600000100240F7B501930B092F2906D9012058
:103A700098402A4DEC6A2043E86206E09C00001959
:103A80000468251D0560002CF1D00F24032724486D
:103A90000C409B00185863009F40FD43066800954A
:103AA0002E40171C03252F409F40066006683E43AA
:103AB00006600126351CA5404768AF4395082E4097
:103AC000A64047604768009D3E4346608668E41014
:103AD0002E4003258660D6082E409E408768009DB4
:103AE0003E438660C66852092E40032515409D401E
:103AF0002B1CC660C668A4003343C360072319406B
:103B0000890008338B402030001902689A43131C47
:103B1000019A8A40111C19430160F7BD0010024050
:103B2000908600080C2370B51340061C0C1C151C55
:103B3000042B05D0082B05D0002B07D11A1C03E05D
:103B4000202200E040220023FFF78CFF301CFFF70B
:103B50006DFF0F23211C19408A101548920012187E
:103B600003202040834096689E43230983401C1C09
:103B7000966096680F4B344394600124221C8A405F
:103B8000D143986808409860D8680140D9602542C0
:103B900002D0996811439960A90702D5D9681143E9
:103BA000D96019681143196059680A435A6070BD99
:103BB000000001400004014010B50C092F2906D96E
:103BC0000122A2400649CB6A9343CB6206E0A300E0
:103BD000C0180368043B0360002BF1D010BDC04641
:103BE0000010024038B50C1C0F23051C0120234097
:103BF0009840C3430A4A281C116819401160516853
:103C000019405160916819409160D1680B40D360B0
:103C1000FFF71AFF281C211CFFF7CEFF38BDC04656
:103C20000004014010B5041C03680D210833036033
:103C3000FFF7C2FF201C0E21FFF7BEFF10BD08B525
:103C40000021102204F096F808BD00004B681D4AC0
:103C500010B59B18062B2DD8041C181C0A1C03F049
:103C60004BFE0A0411171D2125008968201CC9B2CA
:103C7000FFF7A2FF24E0137C097A201CD268FFF72B
:103C8000F1FE1DE0097A201CD268FFF74BFF17E018
:103C90008968201CC9B2FFF7A5FF11E0201CFFF7BF
:103CA000C1FF0DE0201CFFF7C1FE09E0201CFFF75B
:103CB000CBFE05E0802302229B051B6852421A605E
:103CC000012010BD0000FFFF0C4A08B5D068D16884
:103CD0004003C00FC31C8802400F8340D168181CEA
:103CE0000902D368890F0131DB0301D5044B00E0E1
:103CF000044B584303F014FE08BDC04600100240B8
:103D000000127A000024F400134B144A19680A4088
:103D10001A60D968124A0A408021DA60DA684903D9
:103D20000A439021DA60DA6809040A43DA6002285B
:103D300004D18021DA6849020A4302E0D968094ABD
:103D40000A408021DA601A6849040A431A601A6836
:103D50009201FCD57047C04600100240FFFFFFFEF5
:103D6000FFFF03FFFFFFFEFF0A4B1A68D20310D4C8
:103D70001968094A0A4080211A601A6889030A43AF
:103D8000A0211A601A68C9020A431A601A689203CD
:103D9000FCD5704700100240FFFFCFFF0023F7B5AE
:103DA000334CA66BA363626B01926363276B23633F
:103DB000C046C0460322E3689343E3600325E268FC
:103DC00092082A40FAD1C046C046042806D00528E9
:103DD0000ED0022810D0274B023D0FE08020244B4C
:103DE00040025B68151C1B045B0F9840031C05E038
:103DF000FFF76AFF031C01E0051C1F4B1F4AE06828
:103E000010400022191CD1408C461D498C4503D915
:103E10000132052AF6D102E000218A4200D0D11CED
:103E2000CA020243E260E268080216490A400243FD
:103E3000E260581E0F4903F073FD40231843124BF4
:103E40001860BFF34F8FBFF35F8FC046C046E36873
:103E50002B43E360E368064A1B079B0FAB42F9D193
:103E6000C046C046019B176396635363F7BDC046C7
:103E7000001002400024F40000127A00FFC7FFFF88
:103E80000048E801FFF8FFFF00200240084A08B59B
:103E90001168084B0B40802109050B431360C04695
:103EA000C046FFF761FF0220FFF72EFF08BDC046A6
:103EB00000700040FFFFFFE70C2208B50E4BD868EA
:103EC000104003F019FD09141414161414140714E7
:103ED0001414110009480DE0586880230004400FB5
:103EE0005B028340181C05E0FFF7EEFE02E00020B5
:103EF00000E0034808BDC0460010024000127A00EE
:103F00000024F400094B10B5DA680124120607D525
:103F1000DB685B065B0F1B199C401F2C00DD6400F7
:103F2000FFF7CAFF211C03F08BFD10BD00100240FB
:103F3000084B10B5DA680124920404D5DB68DB0471
:103F40009B0F1B199C40FFF7DDFF211C03F078FD40
:103F500010BDC04600100240084B10B5DA680124BD
:103F6000520504D5DB689B059B0F1B199C40FFF78E
:103F7000C9FF211C03F064FD10BDC04600100240C3
:103F800008B503280FD803F0B7FC0205080BFFF7AC
:103F900093FF0FE0FFF7B6FF0CE0FFF7DDFF09E04E
:103FA000FFF7C6FF06E08023072200209B051B6861
:103FB00052421A6008BD00000C2108B50A4B1A686D
:103FC0000A431A605968094A0A405A600023084A9D
:103FD00043618361936353631363D360FFF756FFB9
:103FE0000520FFF7DBFE08BD00700040FFFDFFFF6E
:103FF0000010024038B5524A4B68051C0C1C934215
:104000000BD0504A934255D0033A934200D08FE0F0
:10401000087AFFF7B5FFE06090E00A69CB68511EAF
:104020008A41A068D2B2C0B2052800D980E003F06E
:1040300063FC0320237F2C35A969002A0CD04A1C7D
:10404000AA61002900D079E0DBB2013199400B1C54
:104050003D4C226B13430AE00139A96100296DD15F
:10406000DBB201319940384C226B8A43131C236325
:1040700064E072B6D8B23AE0002A02D0FFF774FECC
:104080005CE0314A314B116811E02F49304A4868F1
:104090005B071B0C024013434B6046E0002A03D031
:1040A000D8B2FFF731FE49E0274A2A4B11680B408E
:1040B000136043E08C68E4B2012C1FD0002C12D0B6
:1040C000042C35D172B600F0EFFB0221224A1369AD
:1040D00023431361214B1A680A431A601A68144378
:1040E0001C6030BF2AE0FFF7D1FE72B60520FFF753
:1040F00055FE281C00F06EF962B61FE072B604206F
:10410000FFF74CFE281C00F065F962B60E4B114A11
:1041100019680A401A6019680C4A0A401A60C023DC
:104120000E4A5B0511680B431360C046C04605E0AC
:10413000802302229B051B6852421A60012038BD71
:10414000010002000300020000100240FFFFFEFF1A
:10415000FF1FFFFFFFFFFFFE00ED00E000700040CB
:1041600038B5051CCC0B00D10134081C211C03F010
:10417000D7FB012805D980235B02984202D9181C7D
:1041800000E00220034BAD00EB58013C01389C627B
:10419000D86238BDB08600080121074A10B51369FE
:1041A0000E208B431361802300219B055C680A1C51
:1041B0000B1CA04710BDC04600140140021C054B5B
:1041C00010B5986A116901305C6A03F0A9FB0134EB
:1041D000604310BD00140140F0B50F1C8025012381
:1041E00087B0AD0201A9023F0393041C0295FFF7BB
:1041F00001FF049E02950323012F00D90223201CF6
:1042000001A90393FFF7F6FE0498864200D0400010
:1042100007B0F0BD334B8900C858334B70B5CC584C
:104220000123A34004682343042403602F4BCB588D
:10423000186820431860900703D518682419204394
:1042400018600420104003D00125DC682C43DC609A
:10425000D40304D58025DC686D002C43DC60D407D2
:1042600004D580259C68ED012C439C60002837D044
:104270001F4BFF205C581F230121E4B223409940CB
:104280000B1C1C49120A0B60024061B2920100290A
:1042900013DA0F21214008398908174B8900CB1800
:1042A00003210C408C40011CA140DD6902408D437C
:1042B000291CA2401143D96112E00E4B89088900E4
:1042C000C91803231C409C40031CC025A340AD001B
:1042D0004E599E43131C0340A3401A1C32434A51BB
:1042E00070BDC046C0860008D0860008B0860008B1
:1042F000EC86000800E100E000ED00E00C4B8900D6
:10430000C858012302689A4302600A4A88581F224B
:104310000240181C9040021C0748C267074A084820
:104320008A5809588B401168994311607047C046FC
:10433000B0860008EC86000804E100E0C0860008B2
:10434000D086000838B50C1C1D1C002A09D0012A93
:104350000FD1FFF741FF0E4903F0E2FA291C414358
:1043600005E0FFF739FF291C03F0DAFA011C201CD5
:1043700001E0081C191CFFF7F3FE01210022054B88
:10438000A400E3585A6259611A680A431A6038BD9A
:1043900040420F00B086000808B50B690222434373
:1043A000081C0321FFF7CEFF08BD00000121054BCB
:1043B0008000C3581A688A431A601A698A431A61CE
:1043C0007047C046B086000808B50320FFF7EEFF2F
:1043D00008BD000010B50321041CFFF7FDFE0249D3
:1043E00003F09EFA206110BD40420F001FB5041C6F
:1043F0000F4A231C0A201621FBF7EEFE201C032186
:10440000FFF7EAFE0B4903F08BFA032120610A4A09
:10441000201CFFF7FFFE094B0F200193084B01A959
:104420000293084B221C03930023FBF7D5FE1FBD0C
:104430009941000840420F00060D00009943000812
:10444000C9430008BD4100088A68F8B50C1CD1B208
:10445000032904D980239B051B68072278E0C02527
:104460006368AD02AB4214D008D83B4A93420CD0EB
:104470003A4A934268D1FFF741FF6BE038488342E4
:104480000CD038498B420DD05EE0E268FFF7C2FEE7
:1044900060E0227B2369FFF755FF5BE0081CFFF714
:1044A00085FF57E0E168FF200B1C0F2703409D00AC
:1044B000AF40266902402C4C92001259090A146A36
:1044C000C9B2BC431462012B05DCDF00B84094691B
:1044D0008443946105E09F1EFF00B840D469844383
:1044E000D461002936D00139C9B2042904D81F4843
:1044F000445C1F48415C01E000210C1C032B0CD8DC
:10450000181C03F0F9F902040608566307E09663E5
:1045100005E0D66309E0166407E0012B05DCDB004B
:104520009C4090690443946106E0023BDB009C40A0
:10453000231CD0690343D36101200143A9400D1C12
:10454000136A1D43156205E0802302229B051B6848
:1045500052421A600120F8BD05100000061000004C
:104560000100030002000300B0860008E086000896
:10457000E58600088022094B520310B55A61084AAB
:10458000084BD1680D200B40D360802300219B0590
:104590005C680A1C0B1CA04710BDC046000401400B
:1045A00000280040FFFBFFFF8021044BDA680A432C
:1045B000DA60DA685206FCD57047C0460028004031
:1045C0008021024AD3688B43D360704700280040A3
:1045D00080218020364B49059A6B70B50A433549D6
:1045E0009A630A68400002430A6080211A6D090339
:1045F0000A431A65C046C046C0462F4A196D0A4094
:104600001A6572B6CA222D4C6262773A626262B64D
:1046100080201D6DC0020540294E21D1196D294A07
:104620001140C0221965196D9202114319651A6D66
:1046300002431A65FFF7B8FF234B236125606560CD
:10464000A3683340A3600421E2681C4B0A42FAD0FD
:104650009A680A439A6000225A61FFF7B1FF01E0AD
:10466000FFF7A2FF8822A368D2011343A360FFF7DC
:10467000A7FF8020E36840031E40144BE6601968E2
:10468000014319609A68022102439A600A20104A85
:104690000023FBF7A1FD0423C0210E4A890013600B
:1046A00050580D4B03408020C0030343535070BD4E
:1046B0000010024000700040FFFFF7FF002800409C
:1046C000FFFBFFFFFFFFFCFF083D3F000004014030
:1046D0007545000800E100E0FFFF00FF37B5072542
:1046E0000A220F21234B1C68186824092C405443CC
:1046F000084024186846047018681C68000B0540C0
:104700005543200A6C4608402818032560701C6831
:104710001868240D2C405443000C084020186C46A7
:10472000A0705C68586824092540554308402D183E
:104730006846C5705C685868E404E40F5443000A96
:10474000084020186C462071FA2458685B68000DF8
:104750001B0C0B4001404A43E4001B199A186B469E
:10476000DA8080239B059B6868469B681B68984796
:104770003EBDC04600280040F0B585B0041CFFF7E0
:1047800013FF80239B059B6802A99B68201C5B6824
:10479000984702ABDC88354B0A21E41802AB9F78BE
:1047A000A4B2DC80381C5E781D7803F0B9F8C0B282
:1047B00003050A21381C019303F038F9019BCFB29D
:1047C000281C3F040A211F4303F030F9C8B20743F5
:1047D0000A21301C03F0A4F8C0B2000307430A21E9
:1047E000301C03F023F93E1CC8B2000206430A2124
:1047F000281C03F095F8C0B21D4D0001304302ABF8
:104800002860DE780A21301C1F7903F00FF9802020
:10481000C9B28001084301900A21381C03F080F8D6
:10482000019BC0B2000303430A21381C019303F02B
:10483000FDF8019BCFB2301C0A213F021F4303F059
:104840006FF80A21C6B2201C03F06AF836013E4315
:10485000000506430A21201C03F0E8F809040E4372
:104860006E60FFF7ADFE05B0F0BDC04630F8FFFF4B
:10487000002800408022436810B5D202041C9342F5
:1048800006D0084A934207D18068FFF775FF06E01B
:10489000FFF724FFE06002E002235B420361012096
:1048A00010BDC0460100040008B5FFF77DFE044AB4
:1048B000044B91680B409360FFF782FE08BDC04631
:1048C00000280040FF00FFFF30B5041C8BB080259E
:1048D0000020AD052B6803A91860AB689B689B6935
:1048E00098470223152005A903AA5B42FBF774FC35
:1048F000069800283AD0244B984203D8079B01938E
:10490000180C02E0214BC018000C072827D802F031
:10491000F3FF09040E132617211C201C05A9FFF71D
:1049200069FB21E0201C05A9FFF790F91CE0201C81
:1049300005A9FFF789FD17E005A8FFF79BFF13E026
:10494000201C05A900F074FA0EE0201C05A901F056
:10495000ADF909E0201C05A900F05AFF04E002228D
:104960002B6852421A6001E00028B0D08023002258
:104970009B051B6814201B6805A901930993131C50
:10498000FBF72AFCA3E7C046FFFF00000000FFFF83
:10499000002200B599B0131C01206946FBF71CFCEE
:1049A0000121009A00232C20FBF716FC6846FFF734
:1049B00003FB6846FFF71AFD6846FFF740F9FFF76B
:1049C00007FE684600F000FC684601F081FA684680
:1049D00000F00EFF6846FFF777FF8023002213B533
:1049E0009B055C68012001A9131CA047019816BD16
:1049F0008023002210B59B05011C5C681420131C49
:104A0000A04710BD08B580239B059A68011C126859
:104A1000186853690830984708BD0000F0B50F1CAE
:104A200087B000251B2804D01C38051C681E854152
:104A300001353A4BAA00D4588022E6692368134214
:104A40002AD0164228D0AB1D9B00FB185B68188A41
:104A5000002821D0D9894A1C92B2DA815918897C60
:104A6000A162824222D300221A82DA81FFF7B5FFC7
:104A70002B4B01900293A023DB022B4303930023D3
:104A800001A80593FFF7B4FF8022236893432360B6
:104A90002368403A134308E0402322681A4205D0B5
:104AA0001E4203D04822236893432360330722D059
:104AB000330705D5AB1D9B00FF187B680F2218E05C
:104AC000636A0093B30705D5AB1D9B00FF187B6895
:104AD00023220EE0F30705D5AB1D9B00FF187B6872
:104AE000242206E0730706D52222AB1D9B00FF1887
:104AF0007B6852421A80B3060DD5636A0593FFF7AF
:104B00006CFF0190A020074BC002054301A802934F
:104B10000395FFF76DFF07B0F0BDC046388700086A
:104B2000050006000600060038B58024051C002399
:104B3000A4050A1C21681C200B60291CFBF74CFBF8
:104B40002368186843425841C0B238BD002208B5F6
:104B5000011C131C1920FBF73FFB08BD002208B500
:104B6000011C131C2120FBF737FB08BD114BD2B2EF
:104B7000920030B5D4581F231C401E3BA3401C1C80
:104B800008250D4B4118DC670C4BD3581A682A4393
:104B90001A60884206D0DA691206FCD50278013024
:104BA0009A62F6E740211A680A431A60044B1C60B7
:104BB00030BDC0462887000804E100E038870008BF
:104BC00000E100E0F0B580278C000419E56987B0AA
:104BD000BF05002D02D03B6806220EE0BB680390A3
:104BE0001B68386801910830DB68382102929847C9
:104BF000061EE06104D11D223B6852421A60C2E0E9
:104C000001235B424360836043628362029B0580B1
:104C100085810582C5819B0720D5172005A92B1CFE
:104C200020220595FBF7D8FA059B7360E669716849
:104C3000301C4B1C40D005AA2B1C18200595FBF7F7
:104C4000CBFA059BB360E3699A68013230D0A021AA
:104C5000019AC90211435868FFF766FF0126029BBB
:104C600033401E1E34D0002505A92B1C17202022FE
:104C7000E7690595FBF7B0FA059B7B62E769796AFE
:104C80004B1C01D1B86810E02B1C182005AA059513
:104C9000FBF7A2FA059BBB62E769BB6A01330FD140
:104CA000786AFFF75BFFE3699868FFF74FFFE369F6
:104CB0005868FFF753FFE069FFF7A4FEE56162E083
:104CC0002B1C1B20796A05AAFBF786FA059BBB857E
:104CD000019B01989B002D4A2D49002801D00528F1
:104CE00006D1CC580121A140506B0143516305E02E
:104CF000CC580121A140906B014391630120254ACA
:104D0000D258116801431160002E03D0116823307E
:104D100001431160204A0A20D458204A211C039BD9
:104D2000FBF75AFA1F230122E1B20B409A40131CF1
:104D30001B4A13604BB2002B13DA0F230B40083BC6
:104D4000184A9B089B009B18032211409140FC329B
:104D50008A40D869904340228A40111C0143D9619E
:104D600011E00F4A9B089B009B18032211409140C1
:104D7000C020FC328A4080001C58944340228A4064
:104D8000111C2143195007B0F0BDC046001002406D
:104D90003087000838870008288700081D4A000867
:104DA00000E100E000ED00E0F7B50C1C002A04D0A3
:104DB0008B1D9B00C3185B689A81A6008519EF695B
:104DC000BB89002B06D11A20796801AAFBF704FAE7
:104DD000019BBB81EA699389002B20D01024A34258
:104DE00000D81C1C80270020BF053B689168186014
:104DF0001232231C1F30FBF7EFF93B681A68002AB8
:104E000013D18821EB69A4B2DA819A891C82141B20
:104E10009C81064B9A5913680B43136005E0A0214F
:104E2000C90221435068FFF77FFEF7BD38870008AD
:104E3000F0B58A6889B0D5B2012D04D980239B05CD
:104E40001B680722BAE14E68C84CA64200D115E1A2
:104E50000B1CA64213D8C6498E4228D007D8012E73
:104E600000D157E1C34B9E4200D1DFE0A2E1C2492D
:104E70008E4221D0C1498E4200D112E19AE1C0494F
:104E80008E4200D130E107D803398E425FD0BD4950
:104E90008E4200D117E18DE1BB498E4200D139E14C
:104EA00000D230E1B9498E4200D139E182E1291CBA
:104EB000DA68FFF787FE83E1D4B2A4000619F3692C
:104EC000002B00D117E1B24B0122E1581F230B4008
:104ED0009A40131CAF4A0B20D3670022131CFBF728
:104EE0007BF9F269AC4F536A01330BD02420395956
:104EF0000B6883430B60906AFFF728FEF369586ADA
:104F0000FFF72CFEF3695A68013206D09868FFF764
:104F10001DFEF3695868FFF721FE012239599F4FA2
:104F20000B6893430B609E49002D05D138594B6B9C
:104F3000824093434B6304E03B59886B9A40904313
:104F40008863F069FFF75EFD0023F36138E1D2B2B8
:104F5000911D890041184968002900D1CBE01969E9
:104F6000DC68CBB2019301238B4E920096590F0A55
:104F70003268FFB29A4332600A0CD2B2082A07D1D3
:104F80004E2F05D08021326849010A43326005E086
:104F90003168844A0A4032604E2F0ED08021326838
:104FA000C9000A4332604F2F04D180213268890042
:104FB0000A4305E031687C4A01E031687B4A0A40D7
:104FC000019B3260013B5A1E93415B0373600023D7
:104FD000B36080239B0204930323002D00D002239F
:104FE00003A90593FFF706F819230698A100584373
:104FF00002F096FC6421051C02F018FDC80019306F
:10500000322102F08DFC6421041C281C02F088FC73
:10501000022200012043F0603368FF321343336003
:10502000B368013AFF3A1343B360C9E0D5B2AC00AC
:105030000419E369002B5ED059684B1C13D0002281
:105040002020131CFBF7C8F8A021E369C9022943FB
:105050005868FFF769FD0023E269938172B6E2693F
:105060001382D38162B6E369596A4B1C04D00022D3
:105070002020131CFBF7B0F8E36941E0D2B20632FE
:10508000920080184368002B08D1802304229B05DE
:105090001B6852421A6001235B4200E05B68CB60F0
:1050A0008EE0D2B20632920080184268002A08D1FF
:1050B0008022042192051268494211600122524265
:1050C00010E0526A0EE0D2B20632920080184268B6
:1050D000002A06D180210420890509684042086021
:1050E00000E01288DA606BE0D2B2063292008018DB
:1050F0004368002B04D180239B051B6804225DE0DC
:1051000000221A805CE0D2B22E2029490023FBF74E
:1051100063F855E0291C1A69FFF746FE002650E0A7
:10512000D2B2920002A91B698418CD1CE6692B70CB
:10513000B38D002B06D11B20716A03AAFBF74CF834
:10514000039BB3850026E3699A8DB24239D0996AF0
:1051500080239B051B682A1C1E601E200123FBF771
:105160003BF8E269938D013B93852AE0081000002B
:1051700005100000031000000610000007100000DA
:1051800003000600020006000500060006000600F7
:105190002887000804E100E038870008308700080D
:1051A00000100240FFEFFFFFFFFDFFFFFFFBFFFFCF
:1051B0006D4B0008802302229B051B6852421A6037
:1051C0000126301C09B0F0BD0023C36103627047A3
:1051D0008023002213B59B055C68012001A9131CE4
:1051E000A047019816BD8023002210B59B05011C25
:1051F0005C681420131CA04710BD000010B572B6E7
:105200007F231840054B8000C0180488044B2140C0
:105210004A4023401A43028062B610BD005C004041
:105220008F8FFFFF002310B50132520852009342C6
:1052300003D0CC5AC4520233F9E710BD38B57F23EE
:105240000B4012339B00C0184568EA68A8682B8A97
:10525000841A9C4200DD1C1C074BC900CB185C80E3
:105260001888054BC0186B689918221CFFF7DAFFE5
:10527000EB681C19EC6038BD0060004010B5041CE0
:105280000A4886B002900194039104920593531C3E
:1052900004D0111C2920221C01AB03E000221420A1
:1052A000131C01A9FAF798FF06B010BD0110000009
:1052B00010B5041C802086B0400102900194039137
:1052C00004920593531C04D0111C2920221C01AB0D
:1052D00003E000221420131C01A9FAF77DFF06B099
:1052E00010BD00008022F0B5924F8DB0FC8F0D1CD8
:1052F000A4B23E1C1201630514D5886B8E49CB8F76
:105300001A43CA8780228D4B1A8001230A938C4B43
:10531000079007A80893FFF766FFFA8F894B1340A1
:10532000FB8704E1144212D0834BD98F11420ED077
:10533000DA8F854CA96B2240DA87844B07A8089343
:105340000791FFF750FFFB8F1C40FC87EFE0E30461
:105350000FD58020784A0001D38FA96B0343D387F0
:105360007B4B07A808930791FFF73DFFF28F794B1E
:10537000DBE023B2002B00DBBDE00F23F48F764F80
:105380001C401BD13B881B0518D5744B744E0393EE
:10539000AB6B04A80293B18804228919FFF742FF7E
:1053A000704BB1880422C91805A8FFF73BFF02A87B
:1053B000FFF719FF3A886C4B13403B80664AA30005
:1053C0009E18019333881B0646D5291C5C3108784A
:1053D00000280AD0624BE200D2185288002A04D179
:1053E00080230343554803800A70019BEF18FB6C30
:1053F0009B7C002B2CD080232343191C281C00935A
:10540000FFF71CFFFB6CDA6899688A421BD3002205
:105410009A74FB6C009F1968D868544BAA6B089368
:10542000C023DB023B43079209930A910B904B1C6C
:1054300006D080239B055F68292007ABB84702E0B0
:1054400007A8FFF7D0FE3021201C0A1CFFF7D6FE6C
:105450003288474B134033800022B35E002B66DA5C
:105460003F4AE3009B18DA889205920D0092019A58
:105470009988AF18FA6B3A4B5068D268C9188018EF
:10548000009AFFF7CFFE3288374B13403380FB6B17
:10549000009AD96852189968DA608A4203D21A8A47
:1054A00000998A4220D900229A74FB6BAA6B196872
:1054B000D86880235B010893C023DB021C4307925A
:1054C00009940A910B904B1C06D080239B055C68C5
:1054D000292007ABA04702E007A8FFF784FE0122BE
:1054E000FB6B52421A6022E0C0218901201C0A1C79
:1054F000FFF784FE1BE0A3040BD5FFF769FE1D4BED
:10550000079007A80893FFF76EFEF28F1A4B13401F
:10551000F38763040BD5FFF75BFE184B079007A8D2
:105520000893FFF760FEF28F154B1340F3870DB021
:10553000F0BDC046065C0040025C00404C5C004090
:1055400005000700FFFBFFFFFFF7FFFF0600070056
:1055500007000700FFEFFFFF005C004008000700A6
:1055600000600040046000408F0F00000110000048
:105570000F8FFFFF0A000700FFDFFFFF0B00070090
:10558000FFBFFFFF38B57F23041C0B40032B04DD56
:1055900080239B051B68072213E0081C0A0606D51A
:1055A00012339B00E3185D68002D0ED105E00E3329
:1055B0009B00E3185D68002D0AD1802305229B051E
:1055C0001B6852421A60002016E03021202203E0BE
:1055D000C021802289019201FFF710FE29684B1C2F
:1055E00007D000232820A26BFAF7F6FD01235B42C7
:1055F0002B6000230120AB7438BD70B5051C0E1C58
:10560000FFF7C0FF00282CD08024301C344007D086
:1056100030210022FFF7F2FD7F233340123307E0F1
:10562000C021221C8901FFF7E9FD7F2333400E339F
:105630009B00EB18596880239B059A6818681268CC
:105640000830536998477F213140002C05D0002352
:105650001231890069184B6003E00E318900691826
:105660004C6070BD10B50C1CFFF78CFF00280BD0F0
:10567000201C230602D53021102203E0C021802205
:1056800089015201FFF7BAFD10BD10B50C1CFFF7E0
:1056900079FF00280BD0201C230602D530212022C0
:1056A00003E0C021802289019201FFF7A7FD10BD10
:1056B0007F230340032B07DD802307229B051B6804
:1056C00052421A60002012E0094A9B009B18020611
:1056D00004D5188830231840103805E01888C023F6
:1056E0009B011840034BC01843425841C0B2704759
:1056F000005C004000F0FFFFF0B5802700250B2381
:105700001A2487B0061C81637F0201A903930494C5
:1057100002970595FEF79AFA0C2301A9301C039312
:10572000049402970595FEF791FA8021274A09040F
:10573000936B274C0B4393630222E38F0120934327
:10574000E38780239B059B6801A99B685B69984759
:105750002A1C2B1C072001A9FAF73EFD0122E38F2A
:105760009343E3871B4BDD871B4B1D801B4B0022A4
:105770001A805A809A80DA80194A08339342F6D107
:10578000331C0A201F21174AFAF726FD8023C72160
:105790008020154A1B06136089005358C0051B0260
:1057A0001B0A034353508C23E28F1B021343C02276
:1057B000E387E38FD2011343E38780230B4A1B0265
:1057C00011880B43138007B0F0BDC04600100240A3
:1057D000025C0040065C0040505C004000600040FD
:1057E00020600040E552000800E100E0585C004005
:1057F0000123021C5B42836300235C321370C3638A
:10580000C3640364036543644365836483657047CD
:10581000E022F0B54B688BB0D202934200D12DE16B
:105820000D1C071C934215D8C44A934200D12FE1A6
:1058300008D8033A934200D134E1C14A934200D1DF
:10584000B2E125E2BF4A934229D0BF4A934200D138
:10585000C6E01DE2BD4A934200D11EE10BD8BC4A0E
:10586000934219D0BB4A934200D011E2896889B2B1
:10587000FFF7F8FE12E2B84A934200D101E2B74ABC
:10588000934200D1FFE1B64A934200D000E208897A
:10589000FFF70EFFE86001E20124CC60FFE18B68B6
:1058A00000936B461B88FF2B03D10968FFF724FF89
:1058B000F4E17F25CB6803930B690193009B1D40A6
:1058C0008023032D03DD9B051B680722E4E1009A7A
:1058D0001A40029202D02B1C123301E02B1C0E3313
:1058E0009B00FB185E68002E04D080239B051B687C
:1058F0000622D1E13B1C391C3C334C311A69002A89
:1059000001D0128AB6181A68002A01D0128AB61875
:1059100004338B42F2D180239B059A681868126881
:1059200014210830D36898472036011C0124002830
:1059300000D1B4E1029B281C002B01D0123000E002
:105940000E306B46800038184160188801235B4296
:105950000B6000230B828B746B467F221B7B024003
:10596000012B08D0002B03D0032B07D1C02303E069
:1059700080239B0001E08023DB001A437F23029CED
:105980000340DB00002C05D0764C1B1900241E8040
:105990005C8011E0734C1B19019C9E803E2C03D847
:1059A00001346408A40206E0019C6F4E0334A4088D
:1059B000013CA4023443DC806B469B88AD000B8223
:1059C0006A4BED18029B2A80002B02D07021202206
:1059D00003E0E0218022C9019201FFF70FFC5DE1A5
:1059E000896889B2FF2946D1614A0B201388E039C2
:1059F0005B045B0C138080225E4B1206DA67002288
:105A00003D1C131CFAF7E8FB00243C352B68002BE7
:105A100003D0381C211CFFF7F0FD2B69002B04D0AC
:105A20008021381C2143FFF7E8FD01340435042CA4
:105A3000ECD10123002403225B42BB634E4B4F4D4C
:105A40001C804F4B381CDA874E4A4F4B916B0B40F2
:105A500093630B2305A90793069508940994FEF711
:105A6000F5F80C23381C05A90695079308940994AA
:105A7000FEF7ECF812E1FFF7C0FD0FE18B68002B99
:105A800002D05C30037009E180223B4B1A8005E1B3
:105A9000896889B2FFF776FD00E1896889B2FFF76E
:105AA000F4FDFBE000240B690293A34200DAF6E068
:105AB0008868CE6883B200930B6801937F231840F7
:105AC000032807D9C021009BC90219430198321C41
:105AD000072317E00E30800038184568002D07D1E5
